:100000000C9463000C948B000C948B000C948B006C
:100010000C948B000C948B000C948B000C948B0034
:100020000C948B000C948B000C948B000C948B0024
:100030000C948B000C948B000C948B000C948B0014
:100040000C94E1040C948B000C948B000C948B00AA
:100050000C948B000C948B000C948B000C948B00F4
:100060000C948B000C948B000000000024002700EF
:100070002A0000000000250028002B0000000000DE
:1000800023002600290004040404040404040202DA
:100090000202020203030303030301020408102007
:1000A0004080010204081020010204081020000012
:1000B0000008000201000003040700000000000027
:1000C00000001208AF0811241FBECFEFD8E0DEBF3A
:1000D000CDBF22E0A2E7B1E001C01D92A731B20777
:1000E000E1F711E0A0E0B1E0E0EEF6E102C005903A
:1000F0000D92A237B107D9F710E0C2E6D0E004C0F4
:100100002197FE010E946B09C136D107C9F70E94F1
:100110002B050C94630B0C94000096E0899FD00192
:100120001124A457BE4F90967C936E935F9791E0F5
:1001300091969C939197E091F901F091FA01909139
:10014000F801992339F0309751F0811108C080915E
:10015000A8010994309719F05C968C91FACF089514
:10016000CF92DF92EF92FF920F931F9396E0899FB9
:10017000F0011124E457FE4F11A2278D30A1213048
:10018000310551F178F02230310509F451C02330A6
:10019000310509F452C01F910F91FF90EF90DF904D
:1001A000CF9008956623B9F361E070E00E948D005E
:1001B0002FB7F8948091880190918901A0918A01CC
:1001C000B0918B012FBF8093E4019093E501A09340
:1001D000E601B093E701DFCF9FB7F894C0908801A4
:1001E000D0908901E0908A01F0908B019FBF00912F
:1001F000E4011091E5012091E6013091E701C01A78
:10020000D10AE20AF30A0091F6011091F70130E0F9
:1002100020E00C151D052E053F0550F462E070E04E
:100220001F910F91FF90EF90DF90CF900C948D0075
:100230006111B1CF63E070E0F3CF70E060E0F0CF28
:10024000833081F028F4813099F08230A9F008954C
:100250008730A9F08830C9F08430B1F480918000F3
:100260008F7D03C0809180008F77809380000895F8
:1002700084B58F7784BD089584B58F7DFBCF809141
:10028000B0008F778093B00008958091B0008F7D8B
:10029000F9CFCF93DF93282F30E0F901E255FF4FDC
:1002A0008491F901E656FF4FD491F901EA57FF4FC7
:1002B000C491CC23A1F081110E942001EC2FF0E029
:1002C000EE0FFF1FE458FF4FA591B491EC91ED2381
:1002D00081E090E009F480E0DF91CF91089580E023
:1002E00090E0FACF1F93CF93DF93282F30E0F901EE
:1002F000E255FF4F8491F901E656FF4FD491F90181
:10030000EA57FF4FC491CC23A9F0162F81110E9408
:100310002001EC2FF0E0EE0FFF1FEE58FF4FA591EC
:10032000B4918FB7F894EC91111108C0D095DE23E9
:10033000DC938FBFDF91CF911F910895DE2BF8CF13
:10034000CF93DF9390E0FC01E656FF4F24918A574C
:100350009F4FFC0184918823C9F090E0880F991F7A
:10036000FC01E859FF4FA591B491FC01EE58FF4FF5
:10037000C591D49161110DC09FB7F8948C912095CF
:1003800082238C938881282328839FBFDF91CF917C
:100390000895623051F49FB7F8943C91822F809574
:1003A00083238C93E8812E2BEFCF8FB7F894EC91B9
:1003B0002E2B2C938FBFEACF3FB7F8948091840106
:1003C00090918501A0918601B091870126B5A89BE7
:1003D00005C02F3F19F00196A11DB11D3FBFBA2FD7
:1003E000A92F982F8827BC01CD01620F711D811D97
:1003F000911D42E0660F771F881F991F4A95D1F71C
:1004000008958F929F92AF92BF92CF92DF92EF9218
:10041000FF920E94DC014B015C0188EBC82E8BE04F
:10042000D82EE12CF12C0E94DC01681979098A0987
:100430009B09683E734081059105A8F321E0C21A2B
:10044000D108E108F10888EE880E83E0981EA11C0F
:10045000B11CC114D104E104F10429F7FF90EF901D
:10046000DF90CF90BF90AF909F908F900895862F90
:10047000642F0C94A001862F642F0C947201862F98
:100480000C944901AF92BF92CF92DF92EF92FF920C
:100490000F931F93CF93DF936C017B018B01040FAC
:1004A000151FEB015E01AE18BF08C017D10759F048
:1004B0006991D601ED91FC910190F081E02DC6018A
:1004C0000995892B79F7C501DF91CF911F910F9184
:1004D000FF90EF90DF90CF90BF90AF900895089578
:1004E00090E080E008958F929F92AF92BF920F9319
:1004F0001F93CF93DF93CDB7DEB7A1970FB6F894D4
:10050000DEBF0FBECDBF19A2423008F44AE08E0113
:100510000F5D1F4F842E912CB12CA12CA5019401AD
:100520000E942A09E62FB901CA01EA3044F5E05DCC
:10053000D801EE938D01232B242B252B79F790E006
:1005400080E0109769F0FD0101900020E9F73197F4
:10055000AF014A1B5B0BBD018BEF91E00E94420291
:10056000A1960FB6F894DEBF0FBECDBFDF91CF913D
:100570001F910F91BF90AF909F908F900895E95C6D
:10058000D7CFFC0101900020E9F73197AF01481B5C
:10059000590BBC018BEF91E00C944202CF93DF9397
:1005A000EC0160E08E810E94720161E08E810E9408
:1005B000720160E08E810E9472018BE891E00197E8
:1005C000F1F7DF91CF910895CF92DF92EF92FF92F2
:1005D0000F931F93CF93DF936C017C0187E0E80EAC
:1005E000F11CD0E0C0E0062F10E0B8010C2E02C0D4
:1005F000759567950A94E2F76170F70181917F0123
:100600000E9472012196C430D10579F7C601DF91AD
:10061000CF911F910F91FF90EF90DF90CF900C94AE
:10062000CE02CF92DF92EF92FF920F931F93CF9360
:10063000DF93EC01F62E642F8C810E9472018D8174
:100640008F3F19F060E00E9472010F2D10E08F853E
:1006500084FF25C06E0187E0C80ED11CF12CE12C6F
:10066000B8010E2C02C0759567950A94E2F7617087
:10067000F60181916F010E947201FFEFEF1AFF0AEC
:1006800088E0E816F10461F7CE01DF91CF911F9168
:100690000F91FF90EF90DF90CF900C94CE02B801B5
:1006A00084E0759567958A95E1F7CE010E94E40292
:1006B0006F2DCE01DF91CF911F910F91FF90EF90A1
:1006C000DF90CF900C94E40240E0682F8BEF91E034
:1006D0000C94110381E00E9464038BE39FE1019776
:1006E000F1F70895CF93DF93823029F490910A02B5
:1006F000986090930A0280930E0210920F0280E499
:100700008093100280E18093110280E580931202B1
:1007100061E08091FF010E94A001809100028F3F63
:1007200019F061E00E94A00161E0809101020E9445
:10073000A001CBEFD1E09E012B5F314080910A02F6
:1007400084FD0BC084E090E021962817390744F41B
:1007500061E08E810E94A001EECF88E090E0F4CFAE
:100760008BE39DE00197F1F760E08091FF010E942B
:10077000720160E0809101020E947201809100028A
:100780008F3F19F060E00E94720180910A0284FD9F
:1007900034C063E08BEF91E00E94E402CBE4D6E446
:1007A000CE010197F1F763E08BEF91E00E94E40244
:1007B0002197F1F763E08BEF91E00E94E40283E57B
:1007C00092E00197F1F762E08BEF91E00E94E40282
:1007D00080910A0280620E94640384E080930B028D
:1007E0008CE00E9464030E946A0382E080930C0202
:1007F00086E0DF91CF910C94640380620E946403D1
:100800008BE496E40197F1F780910A0280620E94DE
:10081000640383E592E00197F1F780910A02806218
:100820000E946403D5CF90910E02691710F06FEF0C
:10083000690FE62FF0E0E550FE4F9489890F80683C
:100840000C94640341E00E94110381E090E008955C
:10085000FC0180819181009711F00C94B70860E051
:1008600070E0CB0108950F931F93CF93DF93EC01BA
:1008700088819981009759F02A813B812617370793
:1008800030F081E0DF91CF911F910F9108958B019E
:100890006F5F7F4F0E94960A009759F09983888373
:1008A0001B830A832C813D81232B59F7FC01108285
:1008B000E8CF80E0E7CFCF93DF93EC018881998187
:1008C000009711F00E940D0A198218821D821C8265
:1008D0001B821A82DF91CF910895EF92FF920F93BE
:1008E0001F93CF93DF9300D0CDB7DEB78C01698320
:1008F0001A82FC01E480F580FFEFEF1AFF0AB701CE
:100900000E9433048823C9F0F80120813181848159
:100910009581BE016F5F7F4F820F931F0E945C0B1A
:10092000F801F582E482C8010F900F90DF91CF911A
:100930001F910F91FF90EF900895C8010E945B04F2
:10094000F2CFEF92FF920F931F93CF93DF93EC01BF
:100950007B018A01BA010E94330481110BC0CE01D0
:100960000E945B04CE01DF91CF911F910F91FF9008
:10097000EF9008951D830C83B701888199810E94AF
:100980005C0BF0CFCF93DF93EC01FB018617970749
:1009900049F0608171816115710541F04481558193
:1009A0000E94A104CE01DF91CF9108950E945B04C3
:1009B000F9CFFC0180819181009711F00C940D0A10
:1009C00008951F920F920FB60F9211242F933F9309
:1009D0008F939F93AF93BF938091880190918901EA
:1009E000A0918A01B0918B013091830123E0230F04
:1009F0002D3758F50196A11DB11D209383018093D9
:100A0000880190938901A0938A01B0938B01809112
:100A1000840190918501A0918601B0918701019692
:100A2000A11DB11D8093840190938501A09386013F
:100A3000B0938701BF91AF919F918F913F912F917B
:100A40000F900FBE0F901F90189526E8230F029667
:100A5000A11DB11DD2CFCF93DF9300D000D000D025
:100A6000CDB7DEB7789484B5826084BD84B58160EB
:100A700084BD85B5826085BD85B5816085BD809169
:100A80006E00816080936E001092810080918100E1
:100A900082608093810080918100816080938100D9
:100AA000809180008160809380008091B10084609B
:100AB0008093B1008091B00081608093B0008091FC
:100AC0007A00846080937A0080917A0082608093BB
:100AD0007A0080917A00816080937A0080917A0018
:100AE000806880937A001092C10082E00E947203B5
:100AF00060E080E00E94130484E391E00E94C10260
:100B000061E080E00E94130485E491E00E94C1024C
:100B10000E94010260E080E00E94130483E591E0FE
:100B20000E94C10261E080E00E94130480E691E02F
:100B30000E94C1020E9401020E946A03212C312CF2
:100B40002101239440E0642E40E0742E51E0509344
:100B5000F8018FB7F8944091880150918901609114
:100B60008A0170918B018FBF8091E8019091E9011A
:100B7000A091EA01B091EB01481B590B6A0B7B0B6A
:100B80008091F4019091F501B0E0A0E08417950701
:100B9000A607B70708F00FC110E08091F2011817FF
:100BA00060F4E091EE01F091EF01E10FF11D62E0E0
:100BB00080810E94A0011F5FF0CFF12C8091F30192
:100BC000F81608F061C0CF2CD12CE091F001F09123
:100BD000F101EC0DFD1D61E080810E94A001E0911A
:100BE000F001F091F101EC0DFD1D60E080810E94AB
:100BF0007201D201C1010F2C04C0880F991FAA1FD6
:100C0000BB1F0A94D2F74C015C01A094B094E12C74
:100C10008091F201E81608F50E2D10E0E091EE014A
:100C2000F091EF01E00FF11F80810E9449010C5FFC
:100C30001F4F000F111FF801E457FE4F892B41F49D
:100C4000808191818829992991838083E394E0CFE1
:100C5000808191818A219B21F7CFE091F001F09171
:100C6000F101EC0DFD1D61E080810E947201809117
:100C7000F0019091F101C80ED91E60E0F60180816B
:100C80000E94A001F3949ACF0CE811E0F801878D3F
:100C900090A1892B31F4148E8FEF9FEF968F858F63
:100CA00011A2369691E0E83CF90789F7D12C8091A2
:100CB000F201D81608F053C0C12CED2CF12CEE0C2B
:100CC000FF1CF701EC56FE4F7F012091F301C21685
:100CD00008F043C0F701608171810C2C02C0769549
:100CE00067950A94E2F7D29E900111242C0D311DD4
:100CF000ECE8F1E080E0458D568D2417350709F4C6
:100D00008FC18F5F36968A30B1F760FF24C0ECE860
:100D1000F1E090E080E0448D411118C0E091EC01D9
:100D2000F091ED01E20FF31F408156E0589FF00172
:100D3000599FF00D1124E457FE4F448F368F258FB5
:100D400010A2178E61E00E94B00005C00196369691
:100D50008A30910501F7C394B8CFD394A8CF80E02F
:100D6000F80191A19111892F0A5F1F4FF1E0083C12
:100D70001F07B1F79FB7F8944091880150918901FE
:100D800060918A0170918B019FBF4093E80150935D
:100D9000E9016093EA017093EB01882361F080918F
:100DA000AD01882341F08091AB019091AC0110918D
:100DB000A801019719F01092F80110E080918201CA
:100DC00090ED910F9A3008F061C01A8219821C824E
:100DD0001B821E821D8281112EC06CE771E0CE0144
:100DE00001960E94C204612FCE0101960E946D04FB
:100DF000BC018CE791E00E94C204CE0101960E94E2
:100E0000D9049091800160E08FE0891B0E94130457
:100E1000409180015091810160917C0170917D0130
:100E20008BEF91E00E9442026114710409F48ECEAE
:100E30000E9400008BCE66E771E0CE0101960E9411
:100E4000C204612FCE0101960E946D04BC0186E7A9
:100E500091E00E94C204CE0101960E94D9049091B3
:100E60007A0161E08FE0891B0E94130440917A01AE
:100E700050917B0160917601709177018BEF91E049
:100E80000E94420251E050937501CECF81111AC0E9
:100E90001123C1F086ED810F823020F0812F8D7FEC
:100EA0008D3281F481E0809382011093740160E0BF
:100EB0008FE00E94130441E0612F8BEF91E00E94CC
:100EC0001103B2CF80917501882309F488C01123E2
:100ED00009F4AACF1D3309F082C0809174018B32CE
:100EE00009F044C08CE791E00E9428046B0186E77A
:100EF00091E00E942804C60ED71ED0927301C092C2
:100F000072010E946A0360E08FE00E9413048091E6
:100F10000C02982F916090930C0285600E946403EC
:100F2000C0907201D09073010D2C000CEE08FF08E8
:100F30004AE0C701B601F7FE0EC041E06DE28BEF5B
:100F400091E00E94110366277727CB016C197D0978
:100F50008E099F094AE00E94730280910C028E7FE5
:100F600080930C0284600E9464035ECF8D3261F432
:100F70008CE791E00E9428046B0186E791E00E94D3
:100F80002804C61AD70AB9CF8A32A9F48CE791E0AF
:100F90000E9428046B0186E791E00E942804C69E07
:100FA0009001C79E300DD69E300D112430937301F1
:100FB00020937201A6CF8F3209F0A3CF8CE791E086
:100FC0000E9428046B017C0186E791E00E942804BE
:100FD0009B01AC01C701B6010E944C09E7CF133455
:100FE00009F022CF0E946A031092820110927501CB
:100FF00050E040E062E571E08CE791E00E94A104DE
:1010000050E040E062E571E086E791E00E94A104D3
:10101000109273011092720190E29093740104CFC8
:10102000617091CE1092FE011092FD018CE291E070
:101030009093FC018093FB011092FF018FEF80934E
:10104000000281E08093010282E08093020283E04B
:101050008093030284E08093040285E0809305027C
:1010600010920602109207021092080210920902D2
:1010700010920A0281E00E94720310928E01109277
:101080009201109291011092930182E291E090936B
:101090008D0180938C01E8EAF1E0108214821382C2
:1010A0001582369681E0E43EF807B9F784E091E0D6
:1010B0009093EF018093EE0180E091E09093F10135
:1010C0008093F00184E08093F2018093F30188E043
:1010D00091E09093ED018093EC018AE090E0909391
:1010E000F5018093F40184EF91E09093F7018093F0
:1010F000F6011092FA011092F9011092E801109293
:10110000E9011092EA011092EB011092F80110929D
:101110007D0110927C0110927F0110927E0110924D
:1011200081011092800150E040E062E571E08CE7BF
:1011300091E00E94A1041092770110927601109222
:1011400079011092780110927B0110927A0150E09F
:1011500040E062E571E086E791E00C94A10486E747
:1011600091E00E94D9048CE791E00C94D9041F937C
:10117000FC0199278827BC01E89411911032E9F30A
:10118000193010F01E30C8F31B3251F01D3249F4F3
:10119000689406C00E94DE08610F711D811D911DBB
:1011A000119110531A30B0F33EF4909580957095DC
:1011B00061957F4F8F4F9F4F1F910895592F482F53
:1011C000372F262F660F771F881F991F660F771FEF
:1011D000881F991F620F731F841F951F660F771F4B
:1011E000881F991F08952F923F924F925F926F929E
:1011F0007F928F929F92AF92BF92CF92DF92EF92A7
:10120000FF920F931F93CF93DF93CDB7DEB7CA1B27
:10121000DB0B0FB6F894DEBF0FBECDBF09942A8852
:10122000398848885F846E847D848C849B84AA84FA
:10123000B984C884DF80EE80FD800C811B81AA8187
:10124000B981CE0FD11D0FB6F894DEBF0FBECDBF52
:10125000ED010895A1E21A2EAA1BBB1BFD010DC0D2
:10126000AA1FBB1FEE1FFF1FA217B307E407F50756
:1012700020F0A21BB30BE40BF50B661F771F881F32
:10128000991F1A9469F760957095809590959B01C8
:10129000AC01BD01CF010895052E97FB1EF400940B
:1012A0000E94630957FD07D00E942A0907FC03D05A
:1012B0004EF40C94630950954095309521953F4F1D
:1012C0004F4F5F4F089590958095709561957F4F32
:1012D0008F4F9F4F0895EE0FFF1F0590F491E02D63
:1012E00009940F931F93CF93DF938230910510F4ED
:1012F00082E090E0E0911502F091160230E020E0EB
:10130000B0E0A0E0309799F42115310509F44AC006
:10131000281B390B24303105D8F58A819B81611552
:10132000710589F1FB0193838283FE0111C0408125
:1013300051810281138148175907E0F04817590776
:1013400099F4109761F012960C93129713961C93D0
:101350003296CF01DF91CF911F910F9108950093A5
:10136000150210931602F4CF2115310551F04217E2
:10137000530738F0A901DB019A01BD01DF01F80133
:10138000C1CFEF01F9CF9093160280931502CDCF14
:10139000FE01E20FF31F81939193225031093983AB
:1013A0002883D7CF2091130230911402232B41F4CC
:1013B00020911A0130911B013093140220931302E3
:1013C00020911801309119012115310541F42DB7F3
:1013D0003EB740911C0150911D01241B350BE0913B
:1013E0001302F0911402E217F307A0F42E1B3F0B37
:1013F0002817390778F0AC014E5F5F4F2417350787
:1014000048F04E0F5F1F50931402409313028193D4
:1014100091939FCFF0E0E0E09CCFCF93DF930097D4
:10142000E9F0FC01329713821282A0911502B0916B
:101430001602ED0130E020E01097A1F42081318107
:10144000820F931F2091130230911402281739073D
:1014500009F061C0F0931402E0931302DF91CF9181
:101460000895EA01CE17DF07E8F54A815B819E0106
:1014700041155105B1F7E901FB83EA83499159917F
:10148000C40FD51FEC17FD0761F48081918102968E
:10149000840F951FE90199838883828193819B83BF
:1014A0008A83F0E0E0E012968D919C91139700976B
:1014B000B9F52D913C911197CD010296820F931FA2
:1014C00020911302309114022817390739F630970A
:1014D00051F51092160210921502B0931402A093C7
:1014E0001302BCCFD383C28340815181840F951FE7
:1014F000C817D90761F44E5F5F4F88819981480F03
:10150000591F518340838A819B8193838283211554
:10151000310509F0B0CFF0931602E09315029ECF8B
:10152000FD01DC01C0CF13821282D7CFB0E0A0E072
:10153000ECE9FAE00C94F5088C01009751F4CB012A
:101540000E9471098C01C801CDB7DEB7E0E10C94AF
:101550001109FC01E60FF71F9C0122503109E21727
:10156000F30708F49DC0D901CD91DC911197C617FE
:10157000D70798F0C530D10530F3CE010497861710
:10158000970708F3C61BD70B2297C193D1936D938E
:101590007C93CF010E940D0AD6CF5B01AC1ABD0A25
:1015A0004C018C0E9D1EA0911502B0911602512C7B
:1015B000412CF12CE12C109731F580911302909180
:1015C00014028815990509F05CC04616570608F004
:1015D00058C08091180190911901009741F48DB77E
:1015E0009EB740911C0150911D01841B950BE8177B
:1015F000F90708F055C0F0931402E0931302F901C3
:1016000071836083A0CF8D919C91119712966C90FD
:10161000129713967C901397A815B90559F56C018C
:1016200042E0C40ED11CCA14DB0420F1AC014A19FB
:101630005B09DA011296159780F0628273825183FA
:101640004083D9016D937C93E114F10471F0D701CB
:101650001396FC93EE93129776CF22968C0F9D1FD4
:10166000F90191838083F301EFCFF0931602E093A9
:10167000150269CF4816590608F42C017D01D301E3
:101680009ACFCB010E9471097C01009749F0AE010D
:10169000B8010E94530BC8010E940D0A870153CF65
:1016A00010E000E050CFFB01DC0102C001900D9280
:1016B00041505040D8F70895FB01DC0101900D9294
:1016C0000020E1F7089510E0C2E6D0E004C0FE017A
:1016D0000E946B092196C336D107C9F7F894FFCF52
:1016E000090807060D0C0B0A3738392F3435362A0E
:1016F0003132332D43303D2B0000170280000000B3
:10170000000037023B023F020000000022044202B8
:1017100070026F02205072616E6176204E616E64BD
:10172000612773200020202050726F6A6563742047
:101730002020002043616C63756C61746F7220001F
:101740006261736564206F6E2041726475696E6FAB
:02175000000097
:00000001FF
